:100000000EC028C027C026C025C039C223C022C0C8
:1000100021C020C01FC01EC01DC01CC01BC0112499
:100020001FBECFE5D2E0DEBFCDBF10E0A0E6B0E05E
:10003000E0E9F6E002C005900D92A039B107D9F7CA
:1000400020E0A0E9B0E001C01D92AC39B207E1F7B1
:1000500041D11CC3D5CF80E287B987E886B913B8F0
:100060008CE384BB089587B1807F816087B9A298B3
:10007000369A3699FECF85B1A29A90E0A0E0B0E022
:10008000880F991FAA1FBB1F880F991FAA1FBB1F8C
:10009000880F991FAA1FBB1FAC01BD01440F551F3C
:1000A000661F771F440F551F661F771F840F951F0C
:1000B000A61FB71FAC01BD01440F551F661F771F58
:1000C000440F551F661F771F840F951FA61FB71F6C
:1000D000AC01BD01440F551F661F771F440F551F0C
:1000E000661F771F840F951FA61FB71FAC01BD01A8
:1000F000440F551F661F771F440F551F661F771F3C
:10010000840F951FA61FB71F892F9A2FAB2FBB27D0
:10011000089587B1807F836087B9A398369A36990E
:10012000FECF85B1A39A90E0A0E0B0E0880F991FC0
:10013000AA1FBB1F880F991FAA1FBB1F880F991FDB
:10014000AA1FBB1FAC01BD01440F551F661F771FBF
:10015000440F551F661F771F840F951FA61FB71FDB
:10016000AC01BD01440F551F661F771F440F551F7B
:10017000661F771F840F951FA61FB71FAC01BD0117
:10018000440F551F661F771F440F551F661F771FAB
:10019000840F951FA61FB71FAC01BD01440F551F4B
:1001A000661F771F440F551F661F771F840F951F0B
:1001B000A61FB71F892F9A2FAB2FBB270895CF9368
:1001C000DF93DC018617970700F1222309F43FC073
:1001D000FA013596822F90E0820F911D820F911DBA
:1001E000880F991F0596480F591F8FEF9FEFEF015A
:1001F000239728813981A217B30710F0808190E0FE
:100200003696E417F50799F727C0822F90E00197FB
:100210000AF1E22FF0E0E20FF11DE20FF11DEE0F07
:10022000FF1F3297E40FF51F425051098FEF9FEFE8
:10023000EF012497288139812A173B0718F0908114
:10024000892F90E03697E417F50791F705C08FEFF7
:100250009FEF02C08FEF9FEFDF91CF9108958B301A
:1002600058F480939000E82FF0E0EB57FF4F808127
:10027000E1D080E090E008958FEF9FEF08958B30FC
:1002800028F48093840080E090E008958FEF9FEF42
:1002900008958091900090E001962091840030E0D4
:1002A0002817390714F480918400D9DF08958091CC
:1002B000900090E0019712F480E090E0D0DF089584
:1002C0009091900080918400891718F480918400A7
:1002D000C6DF0895CF93DF9300D0CDB7DEB7198284
:1002E0001A82C6D09ED0B7DE78940F2EF3E0AF2EE0
:1002F000F02DB12C992493948981811130C0B0994B
:1003000002C0B19B7CC0F9D06B017C0168EC70E04D
:1003100080E090E028D1B09B05C0B19B03C09982DA
:100320008BD06DC0B09912C014C0E7D0DC01CB01F6
:100330008C199D09AE09BF0989359B41A105B105FD
:1003400028F09A828A818823A9F054C0B099EDCF11
:1003500055C0B19B54C0B199FECFA9DF50C089816F
:10036000813009F04CC0B0994AC0B19948C076D0EC
:10037000198245C0CEDE77DE23E042E750E060E040
:1003800070E080E090E01BDF8C010F3F8FEF1807DB
:10039000D9F123E040E650E060E070E080E090E0DA
:1003A0000EDF8F3F2FEF920731F403C00A2D1B2D74
:1003B00002C08A2D9B2D9801801791070CF49C0197
:1003C0002130310571F01CF4232B41F015C022308F
:1003D000310551F02330310551F00EC080E04FDF80
:1003E0000BC085E04CDF08C087E049DF05C08AE02C
:1003F00046DF02C08AE043DF63DF7ECF4ADF8A81C7
:10040000882309F4B7CFF6CF23E040E650E060E060
:1004100070E080E090E0D3DE8F3F2FEF920731F65F
:10042000E6CFBC9A80E68CBD88E080BF86ED8DBDAE
:100430001BBC08958BBD089580B780939B008DB53C
:1004400080939A008BB58093990080B7807F825FFC
:1004500080BF8DE78DBD8EE38BBD089580919B009D
:1004600080BF80919A008DBD809199008BBD0895C9
:100470001ABC82E083BF89B7826089BF08951F924A
:100480000F920FB60F9211242F933F934F935F93C8
:100490006F937F938F939F93AF93209191003091AF
:1004A000920040919300509194006091950070915A
:1004B00096008091970090919800A1E0DBD0209366
:1004C0009100309392004093930050939400609376
:1004D0009500709396008093970090939800AF9149
:1004E0009F918F917F916F915F914F913F912F914C
:1004F0000F900FBE0F901F901895AF92BF92CF92A2
:10050000DF92EF92FF920F931F9320919100309111
:1005100092004091930050919400609195007091E9
:100520009600809197009091980008E08AD00F2E55
:10053000F8EEAF2EF02D0F2EF3E0BF2EF02DC12CD4
:10054000D12CE12CF12C00E010E031D0622F732F80
:10055000842F952F1F910F91FF90EF90DF90CF90F8
:10056000BF90AF9008958F929F92AF92BF92CF921B
:10057000DF92EF92FF924B015C01BFDF6B017C01C8
:10058000BCDFDC01CB018C199D09AE09BF098815C0
:100590009905AA05BB05A0F3FF90EF90DF90CF90DF
:1005A000BF90AF909F908F900895689401C0E89499
:1005B0008F929F92CF93DF9305D0DF91CF919F9041
:1005C0008F90089588249924F401E401B0E41B2E4F
:1005D000D4019D158E049F04E007F10738F4FC0157
:1005E0004B01CA01B901AD019E011694220F331FC0
:1005F000441F551F661F771F881F991F881C991C51
:10060000EE1FFF1FCC1FDD1FAA1FBB1F8A149B04F8
:10061000EC05FD05CE05DF05A007B10748F08A18F7
:100620009B08EC09FD09CE09DF09A00BB10B216085
:100630001A94E1F62EF49401AF01BE01CD01000C35
:1006400008950F93083090F0982F872F762F652FFD
:10065000542F432F322F22270850F4CF220F331F5D
:10066000441F551F661F771F881F991F0A95B2F7F1
:100670000F9108950024A7FD00942A0F301D401DFE
:10068000501D601D701D801D901D0895F894FFCFB2
:10069000EA012A0300012A03A6040102A604FA05BE
:1006A00002039A0B4E0C00014D0CA80C0102A70C82
:1006B0003E0D02030A0002060D18273C5779A3D607
:00000001FF
