:100000000EC028C027C026C025C010C223C022C0F1
:1000100021C020C01FC01EC01DC01CC01BC0112499
:100020001FBECFE5D2E0DEBFCDBF10E0A0E6B0E05E
:10003000E8E8FCE002C005900D92AC3AB107D9F7B0
:1000400020E0ACEAB0E001C01D92AE3BB207E1F7A0
:10005000C6D018C6D5CF80E287B987E886B913B86D
:100060008CE384BB0895CF93DF93DC018617970759
:1000700000F1222309F43FC0FA013596822F90E067
:10008000820F911D820F911D880F991F0596480FB1
:10009000591F8FEF9FEFEF01239728813981A21716
:1000A000B30710F0808190E03696E417F50799F7D2
:1000B00027C0822F90E001970AF1E22FF0E0E20FD3
:1000C000F11DE20FF11DEE0FFF1F3297E40FF51F38
:1000D000425051098FEF9FEFEF012497288139811A
:1000E0002A173B0718F09081892F90E03697E41784
:1000F000F50791F705C08FEF9FEF02C08FEF9FEFDD
:10010000DF91CF9108958B3058F48093AC00E82FA5
:10011000F0E0EB57FF4F808164D180E090E00895DC
:100120008FEF9FEF08958B3028F48093840080E058
:1001300090E008958FEF9FEF08958091AC0090E0DC
:1001400001962091840030E02817390714F480913B
:100150008400D9DF08958091AC0090E0019712F4FB
:1001600080E090E0D0DF08959091AC008091840011
:10017000891718F480918400C6DF0895EF92FF92EA
:100180000F931F93CF93DF938C01FC01019000200C
:10019000E9F73197EF01C81BD90B80E090E0F8D464
:1001A0007C01EC0EFD1E2FEFE21621E0F20670F44A
:1001B000AE01BC01C801F1D460E0C701FDD4B701B4
:1001C00080E090E00BD580E090E002C08FEF9FEFE1
:1001D000DF91CF911F910F91FF90EF900895CF93F2
:1001E000DF93CDB7DEB7AC970FB6F894DEBF0FBE86
:1001F000CDBF19A61AA613D1EBD02DDF789423E03A
:100200002BA71CA60F2EF3E0AF2EB12CF02D00E093
:1002100010E0CE0145966C010F2EFAE0EF2EF12C86
:10022000F02D0F2EFAE92F2EF0E03F2EF02D89A5AC
:10023000811138C0B09902C0B19B40C035D12B01AB
:100240003C0168EC70E080E090E064D1B09B09C0B4
:10025000B19B07C091E099A7C6D080E990E08EDFFE
:100260002DC0B09913C015C01FD1DC01CB0184197A
:100270009509A609B70989359B41A105B10530F05B
:1002800081E08AA783E990E079DF18C0B099ECCFCC
:100290009AC0B19B13C0B199FECF5DDF85EA90E0B3
:1002A0006DDF0CC089A5813049F4B09907C0B199C0
:1002B00005C0ABD087E990E061DF19A68AA581115E
:1002C0007BC0F801EE0FFF1FA1E0B0E0AC0FBD1F37
:1002D000EA0FFB1F11821082158A148A0F5F1F4FCD
:1002E0000A30110509F0A3CFFD019E012B5E3F4F9F
:1002F00000E010E0812C912C81919191B7012CD1DB
:10030000860E971ED9018D919D919D01B70124D133
:10031000060F171FEC15FD0579F723E040E650E0C6
:1003200060E070E0C4019FDE8F3FBFEF9B0709F0E4
:100330005C0123E042E750E06FEF7FE7C80193DE06
:100340008F3F2FEF920711F08BA79CA78CA58F935F
:100350009BA59F93BF92AF923F922F9295D10F9002
:100360000F900F900F900F900F908BA59CA5A81643
:10037000B9060CF4C5018130910579F01CF4892B84
:1003800039F01DC08230910569F0039781F017C0E4
:1003900080E0C9DE00E010E014C085E0C4DE00E0CB
:1003A00010E00FC087E0BFDE00E010E00AC08AE086
:1003B000BADE00E010E005C08AE0B5DE02C000E071
:1003C00010E0D2DE34CFB9DE88EA90E0D7DE76CF17
:1003D000BC9A80E68CBD88E080BF86ED8DBD1BBCDD
:1003E00008958BBD089580B78093B7008DB5809335
:1003F000B6008BB58093B50080B7807F825F80BFE9
:100400008DE78DBD8EE38BBD08958091B70080BFD1
:100410008091B6008DBD8091B5008BBD08951ABC4A
:1004200082E083BF89B7826089BF08951F920F92CF
:100430000FB60F9211242F933F934F935F936F93B7
:100440007F938F939F93AF932091AD003091AE0037
:100450004091AF005091B0006091B1007091B20036
:100460008091B3009091B400A1E0EED02093AD0054
:100470003093AE004093AF005093B0006093B10052
:100480007093B2008093B3009093B400AF919F91AA
:100490008F917F916F915F914F913F912F910F902D
:1004A0000FBE0F901F901895AF92BF92CF92DF9220
:1004B000EF92FF920F931F932091AD003091AE0009
:1004C0004091AF005091B0006091B1007091B200C6
:1004D0008091B3009091B40008E09DD00F2EF8EE0B
:1004E000AF2EF02D0F2EF3E0BF2EF02DC12CD12C0E
:1004F000E12CF12C00E010E044D0622F732F842F08
:10050000952F1F910F91FF90EF90DF90CF90BF90AC
:10051000AF9008958F929F92AF92BF92CF92DF9249
:10052000EF92FF924B015C01BFDF6B017C01BCDFEE
:10053000DC01CB018C199D09AE09BF09881599050D
:10054000AA05BB05A0F3FF90EF90DF90CF90BF907E
:10055000AF909F908F90089597FB072E16F400940C
:1005600006D077FD08D07CD007FC05D03EF49095EE
:1005700081959F4F0895709561957F4F0895689478
:1005800001C0E8948F929F92CF93DF9305D0DF91C3
:10059000CF919F908F90089588249924F401E401CD
:1005A000B0E41B2ED4019D158E049F04E007F107D3
:1005B00038F4FC014B01CA01B901AD019E0116944A
:1005C000220F331F441F551F661F771F881F991F57
:1005D000881C991CEE1FFF1FCC1FDD1FAA1FBB1F0D
:1005E0008A149B04EC05FD05CE05DF05A007B107C5
:1005F00048F08A189B08EC09FD09CE09DF09A00B19
:10060000B10B21601A94E1F62EF49401AF01BE0102
:10061000CD01000C08950F93083090F0982F872F8C
:10062000762F652F542F432F322F22270850F4CFD7
:10063000220F331F441F551F661F771F881F991FE6
:100640000A95B2F70F9108950024A7FD00942A0F90
:10065000301D401D501D601D701D801D901D089592
:10066000AA1BBB1B51E107C0AA1FBB1FA617B707D8
:1006700010F0A61BB70B881F991F5A95A9F78095F4
:100680009095BC01CD010895A0E0B0E0E9E4F3E06D
:10069000D2C2AE014B5F5F4FFA0161917191AF0120
:1006A0008091BA009091BB0002D0E2E0E0C2ACE0E1
:1006B000B0E0ECE5F3E0AFC27C016B018A01FC0124
:1006C00017821682838181FFB0C1CE0101964C0151
:1006D000F7019381F60193FD859193FF81916F015D
:1006E000882309F49EC1853239F493FD859193FFE7
:1006F00081916F01853221F4B70190E0B1D1E8CF4B
:10070000512C312C20E02032A0F48B3269F030F4EF
:10071000803259F0833269F420612CC08D3239F077
:10072000803339F4216026C02260246023C0286011
:1007300021C027FD27C030ED380F3A3078F426FF6E
:1007400006C0852D6AE05ED2582E530E13C0832D4D
:100750006AE058D2382E330E20620CC08E3221F45B
:1007600026FD5FC1206406C08C3611F4206802C0EB
:10077000883641F4F60193FD859193FF81916F01D5
:100780008111C1CF982F9F7D9554933028F40C5F31
:100790001F4FFFE3F9830DC0833631F0833771F0CB
:1007A000833509F057C021C0F801808189830E5F2D
:1007B0001F4F44244394512C540114C03801F2E0DB
:1007C0006F0E711CF801A080B18026FF03C0652D5B
:1007D00070E002C06FEF7FEFC5012C8736D12C018E
:1007E00083012C852F77222E16C03801F2E06F0E80
:1007F000711CF801A080B18026FF03C0652D70E058
:1008000002C06FEF7FEFC5012C8714D12C012C851E
:100810002068222E830123FC19C0832D90E0481606
:100820005906A0F4B70180E290E01AD13A94F5CFCE
:10083000F50127FC859127FE81915F01B70190E0CA
:100840000FD131103A94F1E04F1A5108411451047C
:1008500079F7DEC0843611F0893631F5F80127FFCB
:1008600007C060817181828193810C5F1F4F08C036
:1008700060817181072E000C880B990B0E5F1F4F52
:100880002F76722E97FF09C090958095709561958F
:100890007F4F8F4F9F4F2068722E2AE030E0A401D7
:1008A00017D1A82EA81843C0853729F42F7EB22E61
:1008B0002AE030E025C0F22FF97FBF2E8F36C1F03D
:1008C00018F4883579F0ADC0803719F0883721F0F9
:1008D000A8C02F2F2061B22EB4FE0DC08B2D8460D6
:1008E000B82E09C024FF0AC09F2F9660B92E06C0FB
:1008F00028E030E005C020E130E002C020E132E035
:10090000F801B7FE07C060817181828193810C5F1D
:100910001F4F06C06081718180E090E00E5F1F4F25
:10092000A401D6D0A82EA818FB2DFF777F2E76FE27
:100930000BC0372D3E7FA51450F474FE0AC072FC24
:1009400008C0372D3E7E05C0BA2C372D03C0BA2C07
:1009500001C0B52C34FF0DC0FE01EA0DF11D8081F0
:10096000803311F4397E09C032FF06C0B394B394CA
:1009700004C0832F867809F0B39433FD12C030FF92
:1009800006C05A2CB31418F4530C5B18B32CB314D0
:1009900060F4B70180E290E03C8762D0B3943C857C
:1009A000F6CFB31410F43B1801C0312C34FF11C042
:1009B000B70180E390E03C8753D03C8532FF16C0FE
:1009C00031FD03C088E790E002C088E590E0B70100
:1009D0000CC0832F867851F031FF02C08BE201C03A
:1009E00080E237FD8DE2B70190E03AD0A51430F4F3
:1009F000B70180E390E034D05A94F8CFAA94F40180
:100A0000EA0DF11D8081B70190E02AD0A110F6CF48
:100A1000332009F45DCEB70180E290E021D03A9412
:100A2000F7CFF7018681978102C08FEF9FEF2C9659
:100A3000E2E10DC1FC010590615070400110D8F752
:100A4000809590958E0F9F1F0895FC016150704016
:100A500001900110D8F7809590958E0F9F1F0895F3
:100A60000F931F93CF93DF93FB01238121FD03C0DD
:100A70008FEF9FEF28C022FF16C046815781248147
:100A800035814217530744F4A081B1819D012F5F46
:100A90003F4F318320838C93268137812F5F3F4FD7
:100AA0003783268310C0EB01092F182F0084F185AE
:100AB000E02D0995892BE1F68E819F8101969F8318
:100AC0008E83812F902FDF91CF911F910F910895E9
:100AD000FA01AA27283061F1203191F1E8946F934F
:100AE0006E7F6E5F7F4F8F4F9F4FAF4FB1E040D013
:100AF000B4E03ED0670F781F891F9A1FA11D680FB1
:100B0000791F8A1F911DA11D6A0F711D811D911DE5
:100B1000A11D22D009F468943F91062E000C3019D3
:100B2000000C000C3019305D3193CEF6CF010895E2
:100B3000462F4770405D4193B3E00FD0C9F7F6CF21
:100B4000462F4F70405D4A3318F0495D31FD4052E9
:100B5000419302D0A9F7EACFB4E0A695979587957F
:100B600077956795BA95C9F700976105710508955E
:100B70009B01AC010A2E069457954795379527950A
:100B8000BA95C9F7620F731F841F951FA01D0895A2
:100B9000A8E1B0E042E050E027C0DC01A40FB51F9F
:100BA0004150504040F0CB01840F951F2E9105D04D
:100BB00041505040D8F70895262FE199FECF9FBBB2
:100BC0008EBBE09A01970DB2021639F01CBA2DBB0C
:100BD0000FB6F894E29AE19A0FBE08950196272F76
:100BE000ECDFEACFDC01CB01FC01E199FECF06C0CE
:100BF000FFBBEEBBE09A31960DB20D9241505040D2
:100C0000B8F70895002480FD060E660F11F0869552
:100C1000D1F7802D08952F923F924F925F926F925D
:100C20007F928F929F92AF92BF92CF92DF92EF927C
:100C3000FF920F931F93CF93DF93CDB7DEB7CA1BFD
:100C4000DB0B0FB6F894DEBF0FBECDBF09942A8828
:100C5000398848885F846E847D848C849B84AA84D0
:100C6000B984C884DF80EE80FD800C811B81AA815D
:100C7000B981CE0FD11D0FB6F894DEBF0FBECDBF28
:080C8000ED010895F894FFCF87
:100C8800EA012A0300012A03A6040102A604FA05C0
:100C980002039A0B4E0C00014D0CA80C0102A70C84
:100CA8003E0D02030A0002060D18273C5779A3D609
:100CB800730A0065210A006E0A00743A2025642C24
:0C0CC80020763A2025640A00690A00002A
:00000001FF
